{
  "_format": "hh-sol-artifact-1",
  "contractName": "SupplyChain",
  "sourceName": "contracts/SupplyChain.sol",
  "abi": [
    {
      "inputs": [],
      "stateMutability": "nonpayable",
      "type": "constructor"
    },
    {
      "inputs": [
        {
          "internalType": "uint256",
          "name": "",
          "type": "uint256"
        }
      ],
      "name": "DIS",
      "outputs": [
        {
          "internalType": "address",
          "name": "addr",
          "type": "address"
        },
        {
          "internalType": "uint256",
          "name": "id",
          "type": "uint256"
        },
        {
          "internalType": "string",
          "name": "name",
          "type": "string"
        },
        {
          "internalType": "string",
          "name": "place",
          "type": "string"
        }
      ],
      "stateMutability": "view",
      "type": "function"
    },
    {
      "inputs": [
        {
          "internalType": "uint256",
          "name": "_medicineID",
          "type": "uint256"
        }
      ],
      "name": "Distribute",
      "outputs": [],
      "stateMutability": "nonpayable",
      "type": "function"
    },
    {
      "inputs": [
        {
          "internalType": "uint256",
          "name": "",
          "type": "uint256"
        }
      ],
      "name": "MAN",
      "outputs": [
        {
          "internalType": "address",
          "name": "addr",
          "type": "address"
        },
        {
          "internalType": "uint256",
          "name": "id",
          "type": "uint256"
        },
        {
          "internalType": "string",
          "name": "name",
          "type": "string"
        },
        {
          "internalType": "string",
          "name": "place",
          "type": "string"
        }
      ],
      "stateMutability": "view",
      "type": "function"
    },
    {
      "inputs": [
        {
          "internalType": "uint256",
          "name": "_medicineID",
          "type": "uint256"
        }
      ],
      "name": "Manufacturing",
      "outputs": [],
      "stateMutability": "nonpayable",
      "type": "function"
    },
    {
      "inputs": [
        {
          "internalType": "uint256",
          "name": "",
          "type": "uint256"
        }
      ],
      "name": "MedicineStock",
      "outputs": [
        {
          "internalType": "uint256",
          "name": "id",
          "type": "uint256"
        },
        {
          "internalType": "string",
          "name": "name",
          "type": "string"
        },
        {
          "internalType": "string",
          "name": "description",
          "type": "string"
        },
        {
          "internalType": "uint256",
          "name": "RMSid",
          "type": "uint256"
        },
        {
          "internalType": "uint256",
          "name": "MANid",
          "type": "uint256"
        },
        {
          "internalType": "uint256",
          "name": "DISid",
          "type": "uint256"
        },
        {
          "internalType": "uint256",
          "name": "RETid",
          "type": "uint256"
        },
        {
          "internalType": "enum SupplyChain.STAGE",
          "name": "stage",
          "type": "uint8"
        }
      ],
      "stateMutability": "view",
      "type": "function"
    },
    {
      "inputs": [],
      "name": "Owner",
      "outputs": [
        {
          "internalType": "address",
          "name": "",
          "type": "address"
        }
      ],
      "stateMutability": "view",
      "type": "function"
    },
    {
      "inputs": [
        {
          "internalType": "uint256",
          "name": "",
          "type": "uint256"
        }
      ],
      "name": "RET",
      "outputs": [
        {
          "internalType": "address",
          "name": "addr",
          "type": "address"
        },
        {
          "internalType": "uint256",
          "name": "id",
          "type": "uint256"
        },
        {
          "internalType": "string",
          "name": "name",
          "type": "string"
        },
        {
          "internalType": "string",
          "name": "place",
          "type": "string"
        }
      ],
      "stateMutability": "view",
      "type": "function"
    },
    {
      "inputs": [
        {
          "internalType": "uint256",
          "name": "",
          "type": "uint256"
        }
      ],
      "name": "RMS",
      "outputs": [
        {
          "internalType": "address",
          "name": "addr",
          "type": "address"
        },
        {
          "internalType": "uint256",
          "name": "id",
          "type": "uint256"
        },
        {
          "internalType": "string",
          "name": "name",
          "type": "string"
        },
        {
          "internalType": "string",
          "name": "place",
          "type": "string"
        }
      ],
      "stateMutability": "view",
      "type": "function"
    },
    {
      "inputs": [
        {
          "internalType": "uint256",
          "name": "_medicineID",
          "type": "uint256"
        }
      ],
      "name": "RMSsupply",
      "outputs": [],
      "stateMutability": "nonpayable",
      "type": "function"
    },
    {
      "inputs": [
        {
          "internalType": "uint256",
          "name": "_medicineID",
          "type": "uint256"
        }
      ],
      "name": "Retail",
      "outputs": [],
      "stateMutability": "nonpayable",
      "type": "function"
    },
    {
      "inputs": [
        {
          "internalType": "address",
          "name": "_address",
          "type": "address"
        },
        {
          "internalType": "string",
          "name": "_name",
          "type": "string"
        },
        {
          "internalType": "string",
          "name": "_place",
          "type": "string"
        }
      ],
      "name": "addDistributor",
      "outputs": [],
      "stateMutability": "nonpayable",
      "type": "function"
    },
    {
      "inputs": [
        {
          "internalType": "address",
          "name": "_address",
          "type": "address"
        },
        {
          "internalType": "string",
          "name": "_name",
          "type": "string"
        },
        {
          "internalType": "string",
          "name": "_place",
          "type": "string"
        }
      ],
      "name": "addManufacturer",
      "outputs": [],
      "stateMutability": "nonpayable",
      "type": "function"
    },
    {
      "inputs": [
        {
          "internalType": "string",
          "name": "_name",
          "type": "string"
        },
        {
          "internalType": "string",
          "name": "_description",
          "type": "string"
        }
      ],
      "name": "addMedicine",
      "outputs": [],
      "stateMutability": "nonpayable",
      "type": "function"
    },
    {
      "inputs": [
        {
          "internalType": "address",
          "name": "_address",
          "type": "address"
        },
        {
          "internalType": "string",
          "name": "_name",
          "type": "string"
        },
        {
          "internalType": "string",
          "name": "_place",
          "type": "string"
        }
      ],
      "name": "addRMS",
      "outputs": [],
      "stateMutability": "nonpayable",
      "type": "function"
    },
    {
      "inputs": [
        {
          "internalType": "address",
          "name": "_address",
          "type": "address"
        },
        {
          "internalType": "string",
          "name": "_name",
          "type": "string"
        },
        {
          "internalType": "string",
          "name": "_place",
          "type": "string"
        }
      ],
      "name": "addRetailer",
      "outputs": [],
      "stateMutability": "nonpayable",
      "type": "function"
    },
    {
      "inputs": [],
      "name": "disCtr",
      "outputs": [
        {
          "internalType": "uint256",
          "name": "",
          "type": "uint256"
        }
      ],
      "stateMutability": "view",
      "type": "function"
    },
    {
      "inputs": [],
      "name": "manCtr",
      "outputs": [
        {
          "internalType": "uint256",
          "name": "",
          "type": "uint256"
        }
      ],
      "stateMutability": "view",
      "type": "function"
    },
    {
      "inputs": [],
      "name": "medicineCtr",
      "outputs": [
        {
          "internalType": "uint256",
          "name": "",
          "type": "uint256"
        }
      ],
      "stateMutability": "view",
      "type": "function"
    },
    {
      "inputs": [],
      "name": "retCtr",
      "outputs": [
        {
          "internalType": "uint256",
          "name": "",
          "type": "uint256"
        }
      ],
      "stateMutability": "view",
      "type": "function"
    },
    {
      "inputs": [],
      "name": "rmsCtr",
      "outputs": [
        {
          "internalType": "uint256",
          "name": "",
          "type": "uint256"
        }
      ],
      "stateMutability": "view",
      "type": "function"
    },
    {
      "inputs": [
        {
          "internalType": "uint256",
          "name": "_medicineID",
          "type": "uint256"
        }
      ],
      "name": "showStage",
      "outputs": [
        {
          "internalType": "string",
          "name": "",
          "type": "string"
        }
      ],
      "stateMutability": "view",
      "type": "function"
    },
    {
      "inputs": [
        {
          "internalType": "uint256",
          "name": "_medicineID",
          "type": "uint256"
        }
      ],
      "name": "sold",
      "outputs": [],
      "stateMutability": "nonpayable",
      "type": "function"
    },
    {
      "inputs": [
        {
          "internalType": "uint256",
          "name": "",
          "type": "uint256"
        },
        {
          "internalType": "uint256",
          "name": "",
          "type": "uint256"
        }
      ],
      "name": "stageTimestamps",
      "outputs": [
        {
          "internalType": "uint256",
          "name": "",
          "type": "uint256"
        }
      ],
      "stateMutability": "view",
      "type": "function"
    }
  ],
  "bytecode": "0x60806040526000600155600060025560006003556000600455600060055534801561002957600080fd5b50600080546001600160a01b0319163317905561163b8061004b6000396000f3fe608060405234801561001057600080fd5b506004361061014d5760003560e01c8063857ddb04116100c3578063b4a99a4e1161007c578063b4a99a4e146102ae578063cc403069146102d9578063dd286398146102ec578063e101a2e0146102f5578063eb1a06b514610315578063eef5cb401461033c57600080fd5b8063857ddb041461024657806386c18275146102595780638f4183cc1461026c5780639c03facb1461027f578063a48d335a14610292578063a95f29d9146102a557600080fd5b80633d753a1c116101155780633d753a1c146101e8578063438e9c4d146101fb5780634def474a1461020457806359bf286f146102175780636a992c9f1461022a5780637e43d94d1461023d57600080fd5b80632a4af440146101525780632b0187ac146101675780632b70b08d146101935780632bdb2e6b146101a65780633868377b146101bd575b600080fd5b610165610160366004611244565b61034f565b005b61017a6101753660046112c6565b610406565b60405161018a9493929190611325565b60405180910390f35b6101656101a1366004611244565b610549565b6101af60045481565b60405190815260200161018a565b6101af6101cb366004611369565b600760209081526000928352604080842090915290825290205481565b6101656101f63660046112c6565b6105e4565b6101af60035481565b6101656102123660046112c6565b610687565b61017a6102253660046112c6565b61072d565b610165610238366004611244565b61075f565b6101af60055481565b610165610254366004611244565b6107f9565b6101656102673660046112c6565b610893565b61016561027a36600461138b565b610937565b61016561028d3660046112c6565b610aab565b6101656102a03660046112c6565b610b68565b6101af60015481565b6000546102c1906001600160a01b031681565b6040516001600160a01b03909116815260200161018a565b61017a6102e73660046112c6565b610c0e565b6101af60025481565b6103086103033660046112c6565b610c40565b60405161018a91906113ef565b6103286103233660046112c6565b610e75565b60405161018a98979695949392919061141f565b61017a61034a3660046112c6565b610fca565b6000546001600160a01b0316331461036657600080fd5b6004805490600061037683611499565b9091555050604080516080810182526001600160a01b0385811682526004546020808401828152848601888152606086018890526000938452600a90925294909120835181546001600160a01b031916931692909217825592516001820155915190919060028201906103e99082611545565b50606082015160038201906103fe9082611545565b505050505050565b600a602052600090815260409020805460018201546002830180546001600160a01b03909316939192610438906114c0565b80601f0160208091040260200160405190810160405280929190818152602001828054610464906114c0565b80156104b15780601f10610486576101008083540402835291602001916104b1565b820191906000526020600020905b81548152906001019060200180831161049457829003601f168201915b5050505050908060030180546104c6906114c0565b80601f01602080910402602001604051908101604052809291908181526020018280546104f2906114c0565b801561053f5780601f106105145761010080835404028352916020019161053f565b820191906000526020600020905b81548152906001019060200180831161052257829003601f168201915b5050505050905084565b6000546001600160a01b0316331461056057600080fd5b6002805490600061057083611499565b9091555050604080516080810182526001600160a01b038581168252600280546020808501828152858701898152606087018990526000938452600890925295909120845181546001600160a01b031916941693909317835593516001830155925191929091908201906103e99082611545565b6000811180156105f657506001548111155b6105ff57600080fd5b600061060a33610ffc565b90506000811161061957600080fd5b600360008381526006602052604090206007015460ff16600581111561064157610641611409565b1461064b57600080fd5b6000918252600660208181526040808520928301939093556007918201805460ff19166004908117909155918152828420918452529020429055565b60008111801561069957506001548111155b6106a257600080fd5b60006106ad3361106c565b9050600081116106bc57600080fd5b600260008381526006602052604090206007015460ff1660058111156106e4576106e4611409565b146106ee57600080fd5b600091825260066020908152604080842060058101939093556007928301805460ff191660039081179091559282528084209284529190529020429055565b600b602052600090815260409020805460018201546002830180546001600160a01b03909316939192610438906114c0565b6000546001600160a01b0316331461077657600080fd5b6003805490600061078683611499565b9091555050604080516080810182526001600160a01b0385811682526003546020808401828152848601888152606086018890526000938452600990925294909120835181546001600160a01b031916931692909217825592516001820155915190919060028201906103e99082611545565b6000546001600160a01b0316331461081057600080fd5b6005805490600061082083611499565b9091555050604080516080810182526001600160a01b0385811682526005546020808401828152848601888152606086018890526000938452600b90925294909120835181546001600160a01b031916931692909217825592516001820155915190919060028201906103e99082611545565b6000811180156108a557506001548111155b6108ae57600080fd5b60006108b9336110d3565b9050600081116108c857600080fd5b60008281526006602052604081206007015460ff1660058111156108ee576108ee611409565b146108f857600080fd5b600091825260066020908152604080842060038101939093556007928301805460ff191660019081179091559282528084209284529190529020429055565b6000546001600160a01b0316331461094e57600080fd5b600060025411801561096257506000600354115b801561097057506000600454115b801561097e57506000600554115b61098757600080fd5b6001805490600061099783611499565b9190505550604051806101000160405280600154815260200183815260200182815260200160008152602001600081526020016000815260200160008152602001600060058111156109eb576109eb611409565b905260018054600090815260066020908152604090912083518155908301519091820190610a199082611545565b5060408201516002820190610a2e9082611545565b50606082015181600301556080820151816004015560a0820151816005015560c0820151816006015560e08201518160070160006101000a81548160ff02191690836005811115610a8157610a81611409565b02179055505060015460009081526007602090815260408083208380529091529020429055505050565b600081118015610abd57506001548111155b610ac657600080fd5b6000610ad133610ffc565b905060008111610ae057600080fd5b600082815260066020819052604090912001548114610afe57600080fd5b600460008381526006602052604090206007015460ff166005811115610b2657610b26611409565b14610b3057600080fd5b5060009081526006602090815260408083206007908101805460ff191660059081179091559083528184209084529091529020429055565b600081118015610b7a57506001548111155b610b8357600080fd5b6000610b8e3361113a565b905060008111610b9d57600080fd5b600160008381526006602052604090206007015460ff166005811115610bc557610bc5611409565b14610bcf57600080fd5b600091825260066020908152604080842060048101939093556007928301805460ff191660029081179091559282528084209284529190529020429055565b6009602052600090815260409020805460018201546002830180546001600160a01b03909316939192610438906114c0565b6060600060015411610c5157600080fd5b60008281526006602052604081206007015460ff166005811115610c7757610c77611409565b03610ca857505060408051808201909152601081526f1359591a58da5b994813dc99195c995960821b602082015290565b600160008381526006602052604090206007015460ff166005811115610cd057610cd0611409565b03610d0e57505060408051808201909152601981527f526177204d6174657269616c20537570706c7920537461676500000000000000602082015290565b600260008381526006602052604090206007015460ff166005811115610d3657610d36611409565b03610d6a5750506040805180820190915260138152724d616e75666163747572696e6720537461676560681b602082015290565b600360008381526006602052604090206007015460ff166005811115610d9257610d92611409565b03610dc5575050604080518082019091526012815271446973747269627574696f6e20537461676560701b602082015290565b600460008381526006602052604090206007015460ff166005811115610ded57610ded611409565b03610e1a57505060408051808201909152600c81526b52657461696c20537461676560a01b602082015290565b600560008381526006602052604090206007015460ff166005811115610e4257610e42611409565b03610e7057505060408051808201909152600d81526c1359591a58da5b994814dbdb19609a1b602082015290565b919050565b60066020526000908152604090208054600182018054919291610e97906114c0565b80601f0160208091040260200160405190810160405280929190818152602001828054610ec3906114c0565b8015610f105780601f10610ee557610100808354040283529160200191610f10565b820191906000526020600020905b815481529060010190602001808311610ef357829003601f168201915b505050505090806002018054610f25906114c0565b80601f0160208091040260200160405190810160405280929190818152602001828054610f51906114c0565b8015610f9e5780601f10610f7357610100808354040283529160200191610f9e565b820191906000526020600020905b815481529060010190602001808311610f8157829003601f168201915b505050600384015460048501546005860154600687015460079097015495969295919450925060ff1688565b6008602052600090815260409020805460018201546002830180546001600160a01b03909316939192610438906114c0565b6000806005541161100c57600080fd5b60015b6005548111611063576000818152600b60205260409020546001600160a01b03808516911603611051576000908152600b602052604090206001015492915050565b8061105b81611499565b91505061100f565b50600092915050565b6000806004541161107c57600080fd5b60015b6004548111611063576000818152600a60205260409020546001600160a01b038085169116036110c1576000908152600a602052604090206001015492915050565b806110cb81611499565b91505061107f565b600080600254116110e357600080fd5b60015b6002548111611063576000818152600860205260409020546001600160a01b038085169116036111285760009081526008602052604090206001015492915050565b8061113281611499565b9150506110e6565b6000806003541161114a57600080fd5b60015b6003548111611063576000818152600960205260409020546001600160a01b0380851691160361118f5760009081526009602052604090206001015492915050565b8061119981611499565b91505061114d565b634e487b7160e01b600052604160045260246000fd5b600082601f8301126111c857600080fd5b813567ffffffffffffffff808211156111e3576111e36111a1565b604051601f8301601f19908116603f0116810190828211818310171561120b5761120b6111a1565b8160405283815286602085880101111561122457600080fd5b836020870160208301376000602085830101528094505050505092915050565b60008060006060848603121561125957600080fd5b83356001600160a01b038116811461127057600080fd5b9250602084013567ffffffffffffffff8082111561128d57600080fd5b611299878388016111b7565b935060408601359150808211156112af57600080fd5b506112bc868287016111b7565b9150509250925092565b6000602082840312156112d857600080fd5b5035919050565b6000815180845260005b81811015611305576020818501810151868301820152016112e9565b506000602082860101526020601f19601f83011685010191505092915050565b60018060a01b038516815283602082015260806040820152600061134c60808301856112df565b828103606084015261135e81856112df565b979650505050505050565b6000806040838503121561137c57600080fd5b50508035926020909101359150565b6000806040838503121561139e57600080fd5b823567ffffffffffffffff808211156113b657600080fd5b6113c2868387016111b7565b935060208501359150808211156113d857600080fd5b506113e5858286016111b7565b9150509250929050565b60208152600061140260208301846112df565b9392505050565b634e487b7160e01b600052602160045260246000fd5b60006101008a83528060208401526114398184018b6112df565b9050828103604084015261144d818a6112df565b9150508660608301528560808301528460a08301528360c08301526006831061148657634e487b7160e01b600052602160045260246000fd5b8260e08301529998505050505050505050565b6000600182016114b957634e487b7160e01b600052601160045260246000fd5b5060010190565b600181811c908216806114d457607f821691505b6020821081036114f457634e487b7160e01b600052602260045260246000fd5b50919050565b601f82111561154057600081815260208120601f850160051c810160208610156115215750805b601f850160051c820191505b818110156103fe5782815560010161152d565b505050565b815167ffffffffffffffff81111561155f5761155f6111a1565b6115738161156d84546114c0565b846114fa565b602080601f8311600181146115a857600084156115905750858301515b600019600386901b1c1916600185901b1785556103fe565b600085815260208120601f198616915b828110156115d7578886015182559484019460019091019084016115b8565b50858210156115f55787850151600019600388901b60f8161c191681555b5050505050600190811b0190555056fea264697066735822122026d19f27dd581b9bfc07ce6f4cd3cf473bbe4ab21642b6da006de7f0986b822e64736f6c63430008130033",
  "linkReferences": {},
  "deployedLinkReferences": {}
}